:020000040000FA
:100000000C94B2000C94DA000C94DA000C94DA0030
:100010000C94DA000C94DA000C94DA000C94DA00F8
:100020000C94DA000C94DA000C94DA000C94DA00E8
:100030000C94DA000C94DA000C94DA000C94DA00D8
:100040000C943F030C94DA000C940D030C94E7021B
:100050000C94DA000C94DA000C94DA000C94DA00B8
:100060000C94DA000C94DA0000407A10F35A00A0E5
:10007000724E18090010A5D4E80000E87648170071
:1000800000E40B54020000CA9A3B000000E1F505B1
:10009000000080969800000040420F000000A086FB
:1000A00001000000102700000000E803000000002D
:1000B0006400000000000A000000000001000000D1
:1000C00000002C76D888DC674F0823DFC1DFAE59EB
:1000D000E1B1B796E5E3E453C63AE651997696E87E
:1000E000E6C28426EB898C9B62ED407C6FFCEFBC02
:1000F0009C9F40F2BAA56FA5F490055A2AF75C932D
:100100006B6CF9676DC11BFCE0E40D47FEF520E662
:10011000B500D0ED902E0300943577050080841E45
:10012000080000204E0A000000C80C333333330FA0
:10013000986E12831141EF8D2114893BE65516CF3D
:10014000FEE6DB18D1844B381BF77C1D901DA4BB49
:10015000E424203284725E228100C9F124ECA1E5FE
:100160003D27140511241FBECFEFD8E0DEBFCDBF61
:1001700021E0AEE1B1E001C01D92AC3CB207E1F775
:1001800011E0A0E0B1E0E2EDF6E102C005900D92D1
:10019000AE31B107D9F710E0C2EBD0E004C021972F
:1001A000FE010E946F09C13BD107C9F70E94890374
:1001B0000C94670B0C940000AF92BF92CF92DF9229
:1001C000EF92FF920F931F93CF93DF936C017B010C
:1001D0008B01040F151FEB015E01AE18BF08C0179D
:1001E000D10759F06991D601ED91FC910190F08110
:1001F000E02DC6010995892B79F7C501DF91CF91D3
:100200001F910F91FF90EF90DF90CF90BF90AF9034
:100210000895FC01538D448D252F30E0842F90E00C
:10022000821B930B541710F0CF96089501970895F1
:10023000FC01918D828D981761F0A28DAE0FBF2FBA
:10024000B11D5D968C91928D9F5F9F73928F90E010
:1002500008958FEF9FEF0895FC01918D828D98177F
:1002600031F0828DE80FF11D858D90E008958FEFBC
:100270009FEF0895FC01918D228D892F90E0805C85
:100280009F4F821B91098F739927089587E291E010
:100290000E943A0121E0892B09F420E0822F089581
:1002A00080E090E0892B29F00E94460181110C9496
:1002B00000000895FC01A48DA80FB92FB11DA35A09
:1002C000BF4F2C91848D90E001968F739927848F76
:1002D000A689B7892C93A089B1898C918370806499
:1002E0008C93938D848D981306C00288F389E02D3A
:1002F00080818F7D80830895EF92FF920F931F93EB
:10030000CF93DF93EC0181E0888F9B8D8C8D9813C8
:100310001AC0E889F989808185FF15C09FB7F894D4
:10032000EE89FF896083E889F98980818370806420
:1003300080839FBF81E090E0DF91CF911F910F916B
:10034000FF90EF900895F62E0B8D10E00F5F1F4F7A
:100350000F731127E02E8C8D8E110CC00FB607FC89
:10036000FACFE889F989808185FFF5CFCE010E9417
:100370005A01F1CFEB8DEC0FFD2FF11DE35AFF4F2A
:10038000F0829FB7F8940B8FEA89FB8980818062A5
:10039000CFCFCF93DF93EC01888D8823B9F0AA8962
:1003A000BB89E889F9898C9185FD03C0808186FD30
:1003B0000DC00FB607FCF7CF8C9185FFF2CF80817F
:1003C00085FFEDCFCE010E945A01E9CFDF91CF9199
:1003D00008953FB7F8948091230190912401A09152
:1003E0002501B091260126B5A89B05C02F3F19F025
:1003F0000196A11DB11D3FBFBA2FA92F982F8827A5
:10040000BC01CD01620F711D811D911D42E0660F7F
:10041000771F881F991F4A95D1F70895CF93DF93CF
:10042000EC0188819981009711F00E94110A1982CC
:1004300018821D821C821B821A82DF91CF9108953F
:10044000FC0180819181009711F00C94110A0895AC
:100450000F931F93CF93DF93EC01888199810097CD
:1004600059F02A813B812617370730F081E0DF9170
:10047000CF911F910F9108958B016F5F7F4F0E9465
:100480009A0A009759F0998388831B830A832C81E9
:100490003D81232B59F7FC011082E8CF80E0E7CFA4
:1004A000EF92FF920F931F93CF93DF936115710526
:1004B00041F480E0DF91CF911F910F91FF90EF9079
:1004C000089541155105B1F07B01EC010C811D81AE
:1004D000040F151FB8010E942802882351F32881B8
:1004E00039818C819D81B701820F931F0E94600B1F
:1004F0001D830C8381E0DECFCF93DF93EC0141E0DD
:1005000050E069E171E00E945002811103C0CE0108
:100510000E940E02CE01DF91CF910895EF92FF92DB
:100520000F931F93CF93DF93EC017B018A01BA01F4
:100530000E94280281110BC0CE010E940E02CE0142
:10054000DF91CF911F910F91FF90EF9008951D8340
:100550000C83B701888199810E94600BF0CFEF92E4
:10056000FF920F931F93CF93DF93CDB7DEB76297C0
:100570000FB6F894DEBF0FBECDBF8C01CB01F801E2
:100580001182108213821282158214824AE09E0127
:100590002F5F3F4F7901B9010E945F05F70101907C
:1005A0000020E9F73197AF014E195F09B701C80183
:1005B0000E948E0262960FB6F894DEBF0FBECDBFCA
:1005C000DF91CF911F910F91FF90EF9008951F92AF
:1005D0000F920FB60F9211242F933F934F935F9377
:1005E0006F937F938F939F93AF93BF93EF93FF93FB
:1005F00087E291E00E945A01FF91EF91BF91AF9184
:100600009F918F917F916F915F914F913F912F912A
:100610000F900FBE0F901F9018951F920F920FB65C
:100620000F9211242F938F939F93EF93FF93E09159
:100630003701F09138018081E0913D01F0913E0158
:1006400082FD1BC09081809140018F5F8F7320914C
:100650004101821741F0E0914001F0E0E95DFE4F79
:10066000958F80934001FF91EF919F918F912F91F2
:100670000F900FBE0F901F9018958081F4CF1F929E
:100680000F920FB60F9211242F933F938F939F9346
:10069000AF93BF9380911F0190912001A091210100
:1006A000B091220130911E0123E0230F2D3758F520
:1006B0000196A11DB11D20931E0180931F019093EF
:1006C0002001A0932101B0932201809123019091F8
:1006D0002401A0912501B09126010196A11DB11D13
:1006E0008093230190932401A0932501B0932601C8
:1006F000BF91AF919F918F913F912F910F900FBE1E
:100700000F901F90189526E8230F0296A11DB11D8A
:10071000D2CFCF93DF93CDB7DEB7E9970FB6F8947A
:10072000DEBF0FBECDBF789484B5826084BD84B532
:10073000816084BD85B5826085BD85B5816085BDDC
:1007400080916E00816080936E0010928100809194
:10075000810082608093810080918100816080931C
:100760008100809180008160809380008091B10041
:1007700084608093B1008091B00081608093B0006C
:1007800080917A00846080937A0080917A00826000
:1007900080937A0080917A00816080937A008091C2
:1007A0007A00806880937A001092C100E09137014E
:1007B000F091380182E08083E0913301F0913401BF
:1007C0001082E0913501F09136018FEC8083109218
:1007D0003F01E0913B01F0913C0186E08083E09194
:1007E0003901F0913A01808180618083E091390183
:1007F000F0913A01808188608083E0913901F09125
:100800003A01808180688083E0913901F0913A015A
:1008100080818F7D808383E0809300017E0124E3CB
:10082000E20EF11C90E0C92E90E0D92E80910001DB
:10083000E0E48E9FC001112480937C0080917A00B7
:10084000806480937A0080917A0086FDFCCF80914D
:10085000780060917900762F682F072E000C880BA6
:10086000990B0E94CD0720E030E04CED52E40E944D
:10087000080820E030EC4FE754E40E94FD08609344
:10088000C4017093C5018093C6019093C7016EE1C6
:1008900070E0CE0182960E94AF026091C401709117
:1008A000C5018091C6019091C70119A618A61BA683
:1008B0001AA61DA61CA68E010F5F1F4F22E044E062
:1008C0000E944105009709F4AAC0FC010190002094
:1008D000E9F73197AF01481B590BBC01CE0188964F
:1008E0000E948E0264E170E0CE018E960E94AF02FB
:1008F0001A8219821C821B821E821D826EA57FA510
:100900006115710531F04AA95BA9CE0101960E94DB
:100910008E02CE0101960E947C028C014CA55DA541
:1009200068A579A50E945002811103C0C8010E94E8
:100930000E02C8010E947C028C014EA15FA16AA137
:100940007BA10E945002811103C0C8010E940E02C7
:100950001DAA1CAA1FAA1EAA19AE18AE0E151F05A5
:1009600059F0F801608171816115710529F04481A8
:100970005581C7010E948E02CE0101960E9420027D
:10098000CE018E960E942002CE0188960E942002FF
:10099000CE0182960E94200248AD59AD6CA97DA976
:1009A00087E291E00E94DC0042E050E06BE171E000
:1009B00087E291E00E94DC000E94E9012B013C01EA
:1009C0008AE0882E912CA12CB12C0E94E901641997
:1009D000750986099709683E734081059105A8F35A
:1009E000F1E08F1A9108A108B10828EE420E23E029
:1009F000521E611C711C81149104A104B10429F7D9
:100A0000C7010E942002C114D10409F40FCF0E9433
:100A10004601882309F40ACF0E94000007CFCE01C7
:100A200088960E940E025ECFE7E2F1E01382128206
:100A300088EE93E0A0E0B0E084839583A683B7833B
:100A40008BE091E09183808385EC90E095878487AB
:100A500084EC90E09787868780EC90E0918B808B88
:100A600081EC90E0938B828B82EC90E0958B848B71
:100A700086EC90E0978B868B118E128E138E148EDF
:100A80000895EF920F931F93CF93DF93E80134E023
:100A900047FD34E1042E000C550B57FF03C0519560
:100AA00041955109E32E022F242FAE010E948405A7
:100AB000CE01DF91CF911F910F91EF900895BB2749
:100AC0004A3031F4992322F4BDE2909581959F4FED
:100AD0000C946B05BB27FB015527AA27880F991F8C
:100AE000AA1FA41710F0A41B83955051B9F7A05D5D
:100AF000AA3308F0A95DA193009779F7B111B193DA
:100B00001192CB010C94BB07A9E0B0E0EAE8F5E054
:100B10000C94CC086A01F22EB02E102FFBE3AF2EFE
:100B2000A01608F41BE31F5F012F27E0AE014F5F03
:100B30005F4F0E94E306BC018981982F9970913024
:100B400009F43FC09BE2E1FC04C09E2D9170E0FCE3
:100B50003AC05E2D5071E82FE87083FF46C084E0F4
:100B6000911101C083E0EF2DE81B8F1508F0E0E044
:100B7000D6018E2F20E2552351F1992329F0D60179
:100B80009C93C60101966C0196012D5F3F4FE2FEDA
:100B900024C08EE4D6018C9391E411969C93119716
:100BA00012968C93D9018E2F90E281111BC0E20F17
:100BB000F32FF11D10828EEF9FEF2996ECE00C943D
:100BC000E8089DE2C6CF90E2C4CF2D9381508111F9
:100BD000FCCFCE0ED11CE0E0D0CF8EE6D6018C93B8
:100BE00091E6DBCF9D938150E0CF482F447082FF88
:100BF0003DC084E0911101C083E08F1510F4EF2D0A
:100C0000E81BD6018E2F20E2552309F1992329F004
:100C1000D6019C93C60101966C0196012D5F3F4F52
:100C2000E2FE1BC089E4D6018C938EE411968C936E
:100C3000119786E412968C93D9018E2F90E2882327
:100C400009F4B5CF9D938150FACF2D938150811136
:100C5000FCCFCE0ED11CE0E0D9CF89E6D6018C9333
:100C60008EE611968C93119786E6E4CF9B0177FF71
:100C700002C030E020E0A1E0B0E0911102C0B0E09D
:100C8000A0E0F9013196AE0FBF1F8B2C912CBB2039
:100C900009F461C05401EFEFAE1ABE0AAA0DBB1DE4
:100CA000FA161B0619F014F04F2D4A1B511188C07B
:100CB000E3FC59C07601A42FB0E2A1114FC0C40ECD
:100CC000D11C992309F45BC040E0D6011196F601CE
:100CD00090836D01552309F448C0012F060F9A81B6
:100CE000582F507184FF03C0913309F4015010163E
:100CF0000CF047C0093008F008E0EEE2FE2E5B0180
:100D0000A01AB10885019194819491082F3F320770
:100D100029F4D601FC92F60131966F016217730730
:100D200094F1021713077CF5DB01A21BB30BAA2475
:100D3000A394B12CAC0EBD1EAA0DBB1D11968C91B7
:100D400021503109D601119628153905F4F0F60124
:100D500080836D01DBCFB12CA12CA0CFF701B19323
:100D60007F01A150AACF9111B0CFD601942F50E3AB
:100D700002C05D9391509111FCCFC40ED11C40E094
:100D8000ACCF01E0BACF80E3DBCF6217730731F459
:100D9000963388F4953311F4552369F0F601808376
:100DA000FD01842F90E2811108C0A40FB11D1C9297
:100DB00090E080E002CF81E3F1CF91938150F3CFB7
:100DC000911183CF8ACF283008F027E03327DA014A
:100DD000990F311D87FD916000966105710539F409
:100DE00032602E5F3D9330E32A95E1F708959F3FEF
:100DF00030F080387105610509F03C5F3C5F3D9340
:100E0000913008F08068911DDF93CF931F930F936B
:100E1000FF92EF92192F987F9695E92F96959695C8
:100E2000E90FFF27EE53FF4F99273327EE24FF24C6
:100E3000A701E70105900894079428F4360FE71EF0
:100E4000F81E491F511D660F771F881F991F0694B2
:100E5000A1F70590079428F4E70EF81E491F561FC6
:100E6000C11D770F881F991F661F0694A1F7059073
:100E7000079428F4F80E491F561FC71FD11D880F6D
:100E8000991F661F771F0694A1F70590079420F419
:100E9000490F561FC71FD81F990F661F771F881F3E
:100EA0000694A9F784911095177041F0D695C795CF
:100EB00057954795F794E7941A95C1F7E8E6F0E05F
:100EC00068941590159135916591959105907FE203
:100ED0007395E118F10A430B560BC90BD009C0F703
:100EE000E10CF11E431F561FC91FD01D7EF4703345
:100EF00011F48A95E6CFE894015030F0080F0AF417
:100F00000027021708F4202F2395022F7A3328F0A8
:100F100079E37D932A95E9F710C07D932A9589F6A8
:100F2000069497956795379517951794E118F10AE8
:100F3000430B560BC90BD00998F023957E917395FE
:100F40007A3308F070E37C932013B8F77E917061D8
:100F50007D9330F0839571E37D9370E32A95E1F7FB
:100F60001124EF90FF900F911F91CF91DF9199275E
:100F700087FD90950895DC01FC01672F719177231F
:100F8000E1F7329704C07C916D9370836291AE1744
:100F9000BF07C8F30895E89409C097FB3EF4909505
:100FA0008095709561957F4F8F4F9F4F9923A9F042
:100FB000F92F96E9BB279395F695879577956795D1
:100FC000B795F111F8CFFAF4BB0F11F460FF1BC015
:100FD0006F5F7F4F8F4F9F4F16C0882311F096E9A8
:100FE00011C0772321F09EE8872F762F05C0662356
:100FF00071F096E8862F70E060E02AF09A95660F0F
:10100000771F881FDAF7880F9695879597F90895C7
:101010000E941B080C948C080E947E0838F00E94E5
:10102000850820F0952311F00C9475080C947B082A
:1010300011240C94C0080E949D0870F3959FC1F381
:10104000950F50E0551F629FF001729FBB27F00D76
:10105000B11D639FAA27F00DB11DAA1F649F6627CB
:10106000B00DA11D661F829F2227B00DA11D621F1A
:10107000739FB00DA11D621F839FA00D611D221FD4
:10108000749F3327A00D611D231F849F600D211DB8
:10109000822F762F6A2F11249F5750409AF0F1F03B
:1010A00088234AF0EE0FFF1FBB1F661F771F881FA4
:1010B00091505040A9F79E3F510580F00C9475085F
:1010C0000C94C0085F3FE4F3983ED4F3869577957F
:1010D0006795B795F795E7959F5FC1F7FE2B880F4A
:1010E000911D9695879597F9089597F99F6780E8E0
:1010F00070E060E008959FEF80EC089500240A946A
:101100001616170618060906089500240A941216E2
:101110001306140605060895092E0394000C11F415
:10112000882352F0BB0F40F4BF2B11F460FF04C0C2
:101130006F5F7F4F8F4F9F4F089557FD9058440F1B
:10114000551F59F05F3F71F04795880F97FB991F26
:1011500061F09F3F79F087950895121613061406E3
:10116000551FF2CF4695F1DF08C016161706180670
:10117000991FF1CF86957105610508940895E8944B
:10118000BB2766277727CB0197F908952F923F92C7
:101190004F925F926F927F928F929F92AF92BF9287
:1011A000CF92DF92EF92FF920F931F93CF93DF9333
:1011B000CDB7DEB7CA1BDB0B0FB6F894DEBF0FBE90
:1011C000CDBF09942A88398848885F846E847D84DD
:1011D0008C849B84AA84B984C884DF80EE80FD80DF
:1011E0000C811B81AA81B981CE0FD11D0FB6F89455
:1011F000DEBF0FBECDBFED0108950E9411090C9412
:101200008C080E94850858F00E947E0840F029F45E
:101210005F3F29F00C94750851110C94C0080C9490
:101220007B080E949D0868F39923B1F3552391F33D
:10123000951B550BBB27AA2762177307840738F045
:101240009F5F5F4F220F331F441FAA1FA9F335D0A2
:101250000E2E3AF0E0E832D091505040E695001C56
:10126000CAF72BD0FE2F29D0660F771F881FBB1F10
:10127000261737074807AB07B0E809F0BB0B802DEE
:10128000BF01FF2793585F4F3AF09E3F510578F01A
:101290000C9475080C94C0085F3FE4F3983ED4F3B7
:1012A000869577956795B795F7959F5FC9F7880FEE
:1012B000911D9695879597F90895E1E0660F771F40
:1012C000881FBB1F621773078407BA0720F0621BD1
:1012D000730B840BBA0BEE1F88F7E0950895EE0FA1
:1012E000FF1F0590F491E02D09940F931F93CF9366
:1012F000DF938230910510F482E090E0E091CA0122
:10130000F091CB0130E020E0B0E0A0E0309799F41C
:101310002115310509F44AC0281B390B2430310549
:10132000D8F58A819B816115710589F1FB01938351
:101330008283FE0111C040815181028113814817CF
:101340005907E0F04817590799F4109761F0129681
:101350000C93129713961C933296CF01DF91CF9185
:101360001F910F9108950093CA011093CB01F4CF00
:101370002115310551F04217530738F0A901DB015F
:101380009A01BD01DF01F801C1CFEF01F9CF9093C0
:10139000CB018093CA01CDCFFE01E20FF31F8193F1
:1013A00091932250310939832883D7CF2091C801E6
:1013B0003091C901232B41F42091030130910401A4
:1013C0003093C9012093C80120910101309102019D
:1013D0002115310541F42DB73EB7409105015091DB
:1013E0000601241B350BE091C801F091C901E217F9
:1013F000F307A0F42E1B3F0B2817390778F0AC0138
:101400004E5F5F4F2417350748F04E0F5F1F509314
:10141000C9014093C801819391939FCFF0E0E0E030
:101420009CCFCF93DF930097E9F0FC0132971382B2
:101430001282A091CA01B091CB01ED0130E020E011
:101440001097A1F420813181820F931F2091C80150
:101450003091C9012817390709F061C0F093C9011B
:10146000E093C801DF91CF910895EA01CE17DF071D
:10147000E8F54A815B819E0141155105B1F7E9010B
:10148000FB83EA8349915991C40FD51FEC17FD07DF
:1014900061F4808191810296840F951FE9019983FF
:1014A0008883828193819B838A83F0E0E0E01296B7
:1014B0008D919C9113970097B9F52D913C911197BF
:1014C000CD010296820F931F2091C8013091C9016E
:1014D0002817390739F6309751F51092CB01109241
:1014E000CA01B093C901A093C801BCCFD383C28302
:1014F00040815181840F951FC817D90761F44E5F51
:101500005F4F88819981480F591F518340838A8199
:101510009B81938382832115310509F0B0CFF0932D
:10152000CB01E093CA019ECFFD01DC01C0CF138245
:101530001282D7CFB0E0A0E0E0EAFAE00C94C8084D
:101540008C01009751F4CB010E9475098C01C801F0
:10155000CDB7DEB7E0E10C94E408FC01E60FF71F1D
:101560009C0122503109E217F30708F49DC0D9010C
:10157000CD91DC911197C617D70798F0C530D105EA
:1015800030F3CE0104978617970708F3C61BD70BD5
:101590002297C193D1936D937C93CF010E94110A3E
:1015A000D6CF5B01AC1ABD0A4C018C0E9D1EA091DA
:1015B000CA01B091CB01512C412CF12CE12C109798
:1015C00031F58091C8019091C9018815990509F0FC
:1015D0005CC04616570608F058C0809101019091F2
:1015E0000201009741F48DB79EB7409105015091DB
:1015F0000601841B950BE817F90708F055C0F09316
:10160000C901E093C801F90171836083A0CF8D9176
:101610009C91119712966C90129713967C90139749
:10162000A815B90559F56C0142E0C40ED11CCA14C5
:10163000DB0420F1AC014A195B09DA011296159717
:1016400080F06282738251834083D9016D937C93D1
:10165000E114F10471F0D7011396FC93EE93129705
:1016600076CF22968C0F9D1FF90191838083F30121
:10167000EFCFF093CB01E093CA0169CF481659062A
:1016800008F42C017D01D3019ACFCB010E9475098A
:101690007C01009749F0AE01B8010E94570BC801C8
:1016A0000E94110A870153CF10E000E050CFFB01E8
:1016B000DC0102C001900D9241505040D8F70895CE
:1016C000FB01DC0101900D920020E1F70895F894F0
:1016D000FFCF010000CC018000000000007C01DC95
:1016E000000901C9013A0118012C0120000D0A006E
:107E0000112484B714BE81FFF0D085E080938100F7
:107E100082E08093C00088E18093C10086E0809377
:107E2000C20080E18093C4008EE0C9D0259A86E02C
:107E300020E33CEF91E0309385002093840096BBD3
:107E4000B09BFECF1D9AA8958150A9F7CC24DD24C4
:107E500088248394B5E0AB2EA1E19A2EF3E0BF2EE7
:107E6000A2D0813461F49FD0082FAFD0023811F036
:107E7000013811F484E001C083E08DD089C08234E0
:107E800011F484E103C0853419F485E0A6D080C0E4
:107E9000853579F488D0E82EFF2485D0082F10E0AE
:107EA000102F00270E291F29000F111F8ED06801E7
:107EB0006FC0863521F484E090D080E0DECF843638
:107EC00009F040C070D06FD0082F6DD080E0C81688
:107ED00080E7D80618F4F601B7BEE895C0E0D1E017
:107EE00062D089930C17E1F7F0E0CF16F0E7DF06D8
:107EF00018F0F601B7BEE89568D007B600FCFDCFD4
:107F0000A601A0E0B1E02C9130E011968C91119780
:107F100090E0982F8827822B932B1296FA010C0160
:107F200087BEE89511244E5F5F4FF1E0A038BF0790
:107F300051F7F601A7BEE89507B600FCFDCF97BE46
:107F4000E89526C08437B1F42ED02DD0F82E2BD052
:107F50003CD0F601EF2C8F010F5F1F4F84911BD097
:107F6000EA94F801C1F70894C11CD11CFA94CF0C13
:107F7000D11C0EC0853739F428D08EE10CD085E9AC
:107F80000AD08FE07ACF813511F488E018D01DD067
:107F900080E101D065CF982F8091C00085FFFCCF94
:107FA0009093C60008958091C00087FFFCCF809118
:107FB000C00084FD01C0A8958091C6000895E0E648
:107FC000F0E098E1908380830895EDDF803219F02E
:107FD00088E0F5DFFFCF84E1DECF1F93182FE3DFCA
:107FE0001150E9F7F2DF1F91089580E0E8DFEE27F6
:047FF000FF270994CA
:027FFE00040479
:00000001FF
